S015000046696E616C2050726F6A6563742E737265632E
S11300000C942A000C9434000C9434000C943400A6
S11300100C9434000C9434000C9434000C9434008C
S11300200C9434000C9434000C9434000C9434007C
S11300300C9434000C9434000C9434000C9434006C
S11300400C9434000C9434000C9434000C9434005C
S11300500C94340011241FBECFE5D8E0DEBFCDBF21
S11300600E94A7000C9401010C940000442319F091
S11300704130C9F10895813091F028F08230D9F0EF
S1130080833029F108952AB381E090E002C0880FFB
S1130090991F6A95E2F7809582238ABB089527B356
S11300A081E090E002C0880F991F6A95E2F780957D
S11300B0822387BB089524B381E090E002C0880FB7
S11300C0991F6A95E2F78095822384BB089521B332
S11300D081E090E002C0880F991F6A95E2F780954D
S11300E0822381BB0895813089F028F08230C9F0E1
S11300F0833011F108952AB381E090E002C0880FA3
S1130100991F6A95E2F7822B8ABB089527B381E091
S113011090E002C0880F991F6A95E2F7822B87BB93
S1130120089524B381E090E002C0880F991F6A9576
S1130130E2F7822B84BB089521B381E090E002C0F2
S1130140880F991F6A95E2F7822B81BB08950E945C
S1130150C60080E00E94EF000E94F50040E060E0ED
S113016083E00E94360041E061E083E00E943600B3
S11301700E94FD000E94EB002FEF82E597E02150E2
S113018080409040E1F700C00000F2CF87B3806266
S113019087BB87B38F7B87BB87B3806887BB87B3F5
S11301A0806187BB8DB18F778DB98DB180618DB939
S11301B08DB180628DB98DB1877F8DB98EB18E7FFF
S11301C08EB98DB182608DB98DB181608DB98DB1DB
S11301D080648DB908958FB9779BFECF08958111FE
S11301E003C088B38F7E88BB089588E18AB986E806
S11301F080BD87E689B910BC08955F9BFECF8CB1A2
S10902000895F894FFCFFD
S9030000FC
