:100000000C942A000C9434000C9434000C943400AA
:100010000C9434000C9434000C9434000C94340090
:100020000C9434000C9434000C9434000C94340080
:100030000C9434000C9434000C9434000C94340070
:100040000C9434000C9434000C9434000C94340060
:100050000C94340011241FBECFE5D8E0DEBFCDBF25
:100060000E94A7000C94FF000C940000442319F098
:100070004130C9F10895813091F028F08230D9F0F3
:10008000833029F108952AB381E090E002C0880FFF
:10009000991F6A95E2F7809582238ABB089527B35A
:1000A00081E090E002C0880F991F6A95E2F7809581
:1000B000822387BB089524B381E090E002C0880FBB
:1000C000991F6A95E2F78095822384BB089521B336
:1000D00081E090E002C0880F991F6A95E2F7809551
:1000E000822381BB0895813089F028F08230C9F0E5
:1000F000833011F108952AB381E090E002C0880FA7
:10010000991F6A95E2F7822B8ABB089527B381E095
:1001100090E002C0880F991F6A95E2F7822B87BB97
:10012000089524B381E090E002C0880F991F6A957A
:10013000E2F7822B84BB089521B381E090E002C0F6
:10014000880F991F6A95E2F7822B81BB0895CF93A0
:10015000DF931F92CDB7DEB70E94E60041E060E07A
:1001600082E00E94360041E061E082E00E943600B9
:1001700041E062E082E00E943600CE0101960E94DA
:10018000F9008981813351F485B38B7F85BB85B3B9
:100190008D7F85BB85B3816085BBEFCF823351F402
:1001A00085B38E7F85BB85B38B7F85BB85B382602E
:1001B00085BBE3CF833309F785B38E7F85BB85B3DA
:1001C0008D7F85BB85B3846085BBD7CF87B38F7D9B
:1001D00087BB87B3806487BB87B38F7787BB87B3C1
:1001E0008F7E87BB8DB18F7E8DB98DB180648DB9C7
:1001F0000895779BFECF2FB1FC0120830895F894DA
:02020000FFCF2E
:00000001FF
